:020000040800F2
:1000000000000120350C0008590A00085F0A0008AA
:10001000650A00086B0A0008710A00080000000069
:10002000000000000000000000000000770A000847
:10003000850A000800000000930A0008A10A0008D1
:10004000850C0008850C0008850C0008850C00084C
:10005000850C0008850C0008850C0008850C00083C
:10006000850C0008850C0008850C0008850C00082C
:10007000850C0008850C0008850C0008850C00081C
:10008000850C0008850C0008850C000800000000A5
:10009000000000000000000000000000850C0008C7
:1000A000850C0008850C0008850C0008850C0008EC
:1000B000850C0008850C0008850C0008850C0008DC
:1000C000850C0008850C0008850C0008850C0008CC
:1000D000850C0008850C0008850C00080000000055
:1000E000850C0008850C0008850C00080000000045
:1000F000000000000000000000000000850C000867
:1001000000000000850C0008850C0008850C000824
:1001100000000000000000000000000000000000DF
:10012000850C0008850C0008850C0008850C00086B
:10013000850C000800000000000000000000000026
:10014000000000000000000000000000850C000816
:10015000850C0008850C0008850C0008850C00083B
:10016000850C0008850C000800000000000000005D
:10017000000000000000000000000000000000007F
:1001800000000000850C00080000000000000000D6
:04019000850C0008D2
:1001A00010B5054C237833B9044B13B10448AFF3B1
:1001B00000800123237010BD7000002000000000AB
:1001C0004042000808B5034B1BB103490348AFF395
:1001D000008008BD000000007400002040420008BC
:1001E00001F0FF01102A2BDB10F0070F08D010F8E8
:1001F000013B013A8B422DD010F0070F42B3F6D1EC
:10020000F0B441EA012141EA014122F007047FF004
:1002100000070023F0E80256083C85EA010586EA5B
:10022000010685FA47F5A3FA87F586FA47F6A5FA97
:1002300087F68EB9EED1F0BC01F0FF0102F00702A3
:1002400032B110F8013B013A83EA010313B1F8D14E
:100250000020704701387047002D06BF354603382F
:10026000073815F0010F07D1013015F4807F02BF68
:10027000013015F4C03F0130F0BC0138704700BFB9
:10028000034613F8012B002AFBD1181A01387047D6
:1002900053B94AB9002908BF00281CBF4FF0FF31ED
:1002A0004FF0FF3000F06EB9ADF1080C6DE904CEEF
:1002B00000F006F8DDF804E0DDE9022304B0704741
:1002C0002DE9F047089D04468C46002B40F08380C2
:1002D0008A42174647D9B2FA82F242B1C2F12000EF
:1002E00024FA00F09140974040EA010C94404FEA14
:1002F0001748230CBCFBF8F61FFA87FE08FB16C153
:1003000043EA014306FB0EF1994209D9FB1806F1B5
:10031000FF3080F01981994240F21681023E3B4441
:100320005B1AA4B2B3FBF8F008FB103344EA0344B1
:1003300000FB0EFEA64509D93C1900F1FF3380F001
:100340000581A64540F2028102383C4440EA06405D
:10035000A4EB0E0400261DB1D4400023C5E90043E0
:100360003146BDE8F08702B9FFDEB2FA82F2002A18
:1003700050D1CB1B4FEA174E1FFA87F80126B3FB6B
:10038000FEFC210C0EFB1C3341EA034108FB0CF37D
:100390008B4207D979180CF1FF3002D28B4200F260
:1003A000E9808446C91AA3B2B1FBFEF00EFB10111E
:1003B00043EA014408FB00F8A04507D93C1900F1C5
:1003C000FF3302D2A04500F2D9801846A4EB0804FE
:1003D00040EA0C40BFE78B4209D9002D00F0B18004
:1003E0000026C5E9000130463146BDE8F087B3FA82
:1003F00083F6002E4AD18B4202D3824200F2B880AB
:10040000841A61EB030101208C46002DA8D0C5E9B8
:10041000004CA5E7C2F1200320FA03F6974001FA49
:1004200002F04FEA174ED9403043030CB1FBFEF601
:100430001FFA87F80EFB161143EA014306FB08F189
:10044000994204FA02F409D9FB1806F1FF3C80F046
:100450008D80994240F28A80023E3B445B1A81B211
:10046000B3FBFEF00EFB103341EA034100FB08F33F
:100470008B4207D9791800F1FF3C73D28B4271D9B6
:1004800002383944CB1A40EA064678E7C6F1200C18
:1004900003FA06F422FA0CF31C4320FA0CF701FAD3
:1004A00006F34FEA144E21FA0CF11F433B0CB1FB4B
:1004B000FEF91FFA84F80EFB191143EA014109FB0A
:1004C00008FA8A4502FA06F200FA06F308D961181A
:1004D00009F1FF3048D28A4546D9A9F102092144E1
:1004E000A1EB0A01BFB2B1FBFEF00EFB101147EA0F
:1004F000014700FB08F8B84507D9E71900F1FF31BB
:100500002ED2B8452CD90238274440EA0940A7EB3F
:100510000807A0FB02894F45C64649461AD317D0A3
:100520005DB1B3EB0E0267EB010707FA0CFCF2407A
:100530004CEA0202F740C5E9002700263146BDE833
:10054000F0872E4628460BE70646E9E61846FDE604
:100550004345E5D2B8EB020E69EB04010138DFE751
:100560000846D2E760468DE78146B9E7664675E7FB
:1005700030464AE7ACF1020C394413E702383C44F8
:1005800024E700BF704700BF80B586B002AF0346C6
:10059000FB7197F9073023F00F035BB243F00403BC
:1005A0005BB2DBB23B73FB7923F00F03DBB27B73EF
:1005B000FB791B015BB243F004035BB2DBB2BB739C
:1005C000FB791B01DBB2FB7307F10C024FF0FF3329
:1005D000009304234E21034800F09AFF00BF103718
:1005E000BD4680BD9C00002080B586B002AF0346AA
:1005F000FB7197F9073023F00F035BB243F005035B
:100600005BB2DBB23B7397F9073023F00F035BB2A9
:1006100043F001035BB2DBB27B73FB791B015BB27E
:1006200043F005035BB2DBB2BB73FB791B015BB22A
:1006300043F001035BB2DBB2FB7307F10C024FF036
:10064000FF33009304234E21034800F061FF00BFF5
:100650001037BD4680BD00BF9C00002080B500AFB4
:100660003320FFF791FF3220FFF78EFF2820FFF79E
:100670008BFF0C20FFF788FF0620FFF785FF012086
:10068000FFF782FF022000F071FB00BF80BD80B544
:1006900000AF0120FFF778FF022000F067FB00BFEA
:1006A00080BD80B582B000AF03460A46FB71134699
:1006B000BB71FB79002B06D1BB79803BDBB21846BE
:1006C000FFF762FF08E0FB79012B05D1BB79403BC6
:1006D000DBB21846FFF758FF00BF0837BD4680BDA4
:1006E00090B585B000AF78600023FB7309E0FB7B19
:1006F0007A6813441B781846FFF776FFFB7B0133BB
:10070000FB73FC7B7868FFF7BBFD03469C42EED38E
:1007100000BF00BF1437BD4690BD000080B584B057
:1007200000AF786007F108037A680649184602F0BE
:100730007DFC07F108031846FFF7D2FF00BF103712
:10074000BD4680BD5842000880B500AF00F09CFA5D
:1007500000F028F800F0B4F800F084F8FFF77EFF0E
:1007600000F0DCF800210020FFF79BFF0B4B1B681B
:100770001846FFF7D3FF00210120FFF792FF08483A
:10078000FFF7AEFF40F2DC5000F0F0FAFFF77FFF1A
:1007900040F2DC5000F0EAFAE4E700BF8C000020F1
:1007A000F000002080B594B000AF07F120033022A4
:1007B0000021184602F0D2FA07F10C0300221A6059
:1007C0005A609A60DA601A610023BB60234B1B6C8D
:1007D000224A43F080531364204B1B6C03F0805378
:1007E000BB60BB6800237B601D4B1B6823F4404348
:1007F0001B4A43F400431360194B1B6803F4404346
:100800007B607B6802233B620123FB6210233B6316
:100810000023BB6307F12003184601F081F903466A
:10082000002B01D000F074F80F23FB6000233B6124
:1008300000237B610023BB610023FB6107F10C03F4
:100840000021184601F0E4FB0346002B01D000F024
:100850005FF800BF5037BD4680BD00BF0038024082
:100860000070004080B500AF124B134A1A60114B64
:10087000124A5A600F4B00229A600E4B0022DA6037
:100880000C4B4FF480421A610A4B00225A61094B0B
:1008900000229A61074B0022DA61064B00221A629D
:1008A000044800F0F1FC0346002B01D000F030F8C2
:1008B00000BF80BD9C00002000540040A0860100C5
:1008C00080B483B000AF00237B60104B1B6B0F4ADA
:1008D00043F0010313630D4B1B6B03F001037B60BB
:1008E0007B6800233B60094B1B6B084A43F0020303
:1008F0001363064B1B6B03F002033B603B6800BFB6
:100900000C37BD465DF8047B704700BF00380240DD
:1009100080B400AF72B600BFFEE7000080B59AB0A9
:1009200000AF1049104802F02BF878667B6E002B60
:1009300009D10E4B01221A6011E038460C4B0B4ACC
:100940000C4902F093FB3B467A6E6421184601F095
:10095000E3FE0346002BF0D1786E01F087FD683787
:10096000BD4680BD5C420008604200088C0000204B
:10097000F00000206C42000880B483B000AF002378
:100980007B60104B5B6C0F4A43F4804353640D4B08
:100990005B6C03F480437B607B6800233B60094B06
:1009A0001B6C084A43F080531364064B1B6C03F026
:1009B00080533B603B6800BF0C37BD465DF8047B4D
:1009C000704700BF0038024080B58AB000AF786041
:1009D00007F1140300221A605A609A60DA601A6103
:1009E0007B681B68194A93422BD100233B61184B4B
:1009F0001B6B174A43F002031363154B1B6B03F089
:100A000002033B613B69C0237B611223BB6100236E
:100A1000FB6103233B6204237B6207F11403194645
:100A20000C4800F0ADFA0023FB60094B1B6C084A30
:100A300043F400131364064B1B6C03F40013FB60B8
:100A4000FB6800BF2837BD4680BD00BF0054004092
:100A5000003802400004024080B400AFFEE780B4DA
:100A600000AFFEE780B400AFFEE780B400AFFEE762
:100A700080B400AFFEE780B400AF00BFBD465DF8B4
:100A8000047B704780B400AF00BFBD465DF8047BB7
:100A9000704780B400AF00BFBD465DF8047B70476F
:100AA00080B500AF00F042F900BF80BD80B586B0D0
:100AB00000AFF860B9607A6000237B610AE0AFF3B1
:100AC00000800146BB685A1CBA60CAB21A707B69C2
:100AD00001337B617A697B689A42F0DB7B68184658
:100AE0001837BD4680BD80B586B000AFF860B960EC
:100AF0007A6000237B6109E0BB685A1CBA601B78EE
:100B00001846AFF300807B6901337B617A697B68AB
:100B10009A42F1DB7B6818461837BD4680BD80B429
:100B200083B000AF78604FF0FF3318460C37BD46F6
:100B30005DF8047B704780B483B000AF78603960A3
:100B40003B684FF400525A60002318460C37BD46EC
:100B50005DF8047B704780B483B000AF78600123F8
:100B600018460C37BD465DF8047B704780B485B0ED
:100B700000AFF860B9607A60002318461437BD46AC
:100B80005DF8047B70470EB480B482B000AF78602B
:100B90004FF0FF3318460837BD465DF8047B03B0BD
:100BA0007047000080B586B000AF7860144A154BDE
:100BB000D31A7B617B693B61134B1B68002B02D10D
:100BC000114B124A1A60104B1A687B6813443A6939
:100BD0009A4207D201F0D8FB03460C221A604FF06C
:100BE000FF3309E0084B1B68FB60074B1A687B6802
:100BF0001344054A1360FB6818461837BD4680BD8C
:100C000000000120000400009000002038010020B6
:100C100080B400AF064BD3F88830054A43F4700324
:100C2000C2F8883000BFBD465DF8047B704700BF46
:100C300000ED00E0DFF834D00D480E490E4A0023E5
:100C400002E0D458C4500433C4188C42F9D30B4A80
:100C50000B4C002301E013600432A242FBD3FFF7E8
:100C6000D7FF01F0E1FFFFF76FFD704700000120A3
:100C700000000020700000205C440008700000208C
:100C800038010020FEE7000080B500AF0E4B1B6866
:100C90000D4A43F4007313600B4B1B680A4A43F47C
:100CA00080631360084B1B68074A43F4807313602A
:100CB000032000F031F90F2000F008F8FFF75CFE88
:100CC0000023184680BD00BF003C024080B582B0C2
:100CD00000AF7860124B1A68124B1B7819464FF41C
:100CE0007A73B3FBF1F3B2FBF3F3184600F03BF970
:100CF0000346002B01D001230EE07B680F2B0AD89E
:100D0000002279684FF0FF3000F011F9064A7B6845
:100D10001360002300E0012318460837BD4680BD5C
:100D200000000020080000200400002080B400AF74
:100D3000064B1B781A46064B1B681344044A136083
:100D400000BFBD465DF8047B704700BF080000206F
:100D50002401002080B400AF034B1B681846BD4639
:100D60005DF8047B704700BF2401002080B584B08B
:100D700000AF7860FFF7EEFFB8607B68FB60FB6850
:100D8000B3F1FF3F05D00A4B1B781A46FB681344AA
:100D9000FB6000BFFFF7DEFF0246BB68D31AFA68AC
:100DA0009A42F7D800BF00BF1037BD4680BD00BFD4
:100DB0000800002080B485B000AF78607B6803F045
:100DC0000703FB600C4BDB68BB60BA684FF6FF03A0
:100DD0001340BB60FB681A02BB68134343F0BF6358
:100DE00043F40033BB60044ABB68D36000BF1437D0
:100DF000BD465DF8047B704700ED00E080B400AFB5
:100E0000044BDB681B0A03F007031846BD465DF878
:100E1000047B704700ED00E080B483B000AF034670
:100E20003960FB7197F90730002B0ADB3B68DAB2B7
:100E30000C4997F907301201D2B20B4483F8002312
:100E40000AE03B68DAB20849FB7903F00F03043B80
:100E50001201D2B20B441A7600BF0C37BD465DF8C2
:100E6000047B704700E100E000ED00E080B489B051
:100E700000AFF860B9607A60FB6803F00703FB61BC
:100E8000FB69C3F10703042B28BF0423BB61FB6983
:100E90000433062B02D9FB69033B00E000237B618E
:100EA0004FF0FF32BB6902FA03F3DA43BB681A4022
:100EB0007B699A404FF0FF317B6901FA03F3D94314
:100EC0007B680B40134318462437BD465DF8047B0E
:100ED0007047000080B582B000AF78607B68013B4E
:100EE000B3F1807F01D301230FE00A4A7B68013B05
:100EF00053600F214FF0FF30FFF78EFF054B0022AC
:100F00009A60044B07221A60002318460837BD4632
:100F100080BD00BF10E000E080B582B000AF786017
:100F20007868FFF747FF00BF0837BD4680BD80B532
:100F300086B000AF0346B9607A60FB7300237B6123
:100F4000FFF75CFF78617A68B9687869FFF78EFF10
:100F5000024697F90F3011461846FFF75DFF00BFB4
:100F60001837BD4680BD80B582B000AF7860786824
:100F7000FFF7B0FF034618460837BD4680BD0000A6
:100F800080B489B000AF7860396000237B610023B2
:100F90003B610023BB610023FB6159E10122FB6936
:100FA00002FA03F37B613B681B687A6913403B617B
:100FB0003A697B699A4240F048813B685B6803F07C
:100FC0000303012B05D03B685B6803F00303022B8E
:100FD00030D17B689B68BB61FB695B00032202FA2E
:100FE00003F3DB43BA691340BB613B68DA68FB6912
:100FF0005B0002FA03F3BA691343BB617B68BA6909
:101000009A607B685B68BB610122FB6902FA03F3AB
:10101000DB43BA691340BB613B685B681B0903F0A3
:101020000102FB6902FA03F3BA691343BB617B68EF
:10103000BA695A603B685B6803F00303032B17D05F
:101040007B68DB68BB61FB695B00032202FA03F388
:10105000DB43BA691340BB613B689A68FB695B007C
:1010600002FA03F3BA691343BB617B68BA69DA60B9
:101070003B685B6803F00303022B23D1FB69DA08AA
:101080007B68083253F82230BB61FB6903F0070329
:101090009B000F2202FA03F3DB43BA691340BB61E2
:1010A0003B681A69FB6903F007039B0002FA03F32C
:1010B000BA691343BB61FB69DA087B680832B96916
:1010C00043F822107B681B68BB61FB695B0003224D
:1010D00002FA03F3DB43BA691340BB613B685B6808
:1010E00003F00302FB695B0002FA03F3BA691343DE
:1010F000BB617B68BA691A603B685B6803F4403384
:10110000002B00F0A2800023FB60574B5B6C564A1B
:1011100043F480435364544B5B6C03F48043FB60A3
:10112000FB68524AFB699B08023352F82330BB61CB
:10113000FB6903F003039B000F2202FA03F3DB4376
:10114000BA691340BB617B68494A934219D07B68F6
:10115000484A934213D07B68474A93420DD07B683C
:10116000464A934207D07B68454A934201D1042303
:1011700008E0072306E0032304E0022302E0012342
:1011800000E00023FA6902F0030292009340BA697A
:101190001343BB613549FB699B080233BA6941F8C7
:1011A0002320384B1B68BB613B69DB43BA691340A2
:1011B000BB613B685B6803F48033002B03D0BA69E2
:1011C0003B691343BB612F4ABB6913602D4B5B68BE
:1011D000BB613B69DB43BA691340BB613B685B6839
:1011E00003F40033002B03D0BA693B691343BB619E
:1011F000244ABB695360234B9B68BB613B69DB435B
:10120000BA691340BB613B685B6803F48013002B31
:1012100003D0BA693B691343BB611A4ABB69936047
:10122000184BDB68BB613B69DB43BA691340BB61A8
:101230003B685B6803F40013002B03D0BA693B6979
:101240001343BB610F4ABB69D360FB690133FB6188
:10125000FB690F2B7FF6A2AE00BF00BF2437BD464F
:101260005DF8047B704700BF003802400038014041
:10127000000002400004024000080240000C02404E
:1012800000100240003C014080B584B000AF78609F
:101290007B68002B01D101232BE17B6893F83D3063
:1012A000DBB2002B06D17B68002283F83C207868F3
:1012B000FFF78AFB7B68242283F83D207B681B684C
:1012C0001A687B681B6822F001021A607B681B6841
:1012D0001A687B681B6842F400421A607B681B68CE
:1012E0001A687B681B6822F400421A6001F038F823
:1012F000F8607B685B68814A934207D8FB68804A44
:10130000934294BF01230023DBB206E0FB687D4AD1
:10131000934294BF01230023DBB2002B01D00123B1
:10132000E7E0FB68784AA2FB03239B0CBB607B6869
:101330001B685B6823F03F017B681B68BA680A433F
:101340005A607B681B681B6A23F03F017B685B68FF
:101350006A4A934202D8BB68013309E0BB684FF484
:10136000967202FB03F3694AA2FB03239B09013334
:101370007A6812680B4313627B681B68DB6923F48D
:101380004F4222F0FF027B685B685C498B4219D8B0
:10139000FB68591E7B685B685B00B1FBF3F3591C6B
:1013A00040F6FC730B40002B0AD0FB68591E7B688B
:1013B0005B685B00B1FBF3F30133C3F30B0351E054
:1013C00004234FE07B689B68002B11D1FB68581EFB
:1013D0007B6859680B465B000B44B0FBF3F30133A9
:1013E000C3F30B03002B0CBF01230023DBB212E07D
:1013F000FB68581E7B6859680B469B000B4499009C
:101400000B44B0FBF3F30133C3F30B03002B0CBF0E
:1014100001230023DBB2002B01D0012322E07B68F3
:101420009B68002B0ED1FB68581E7B6859680B46E1
:101430005B000B44B0FBF3F30133C3F30B0343F442
:1014400000430FE0FB68581E7B6859680B469B0001
:101450000B4499000B44B0FBF3F30133C3F30B03CC
:1014600043F44043796809681343CB617B681B6888
:101470001B6823F0C0017B68DA697B681B6A1A432A
:101480007B681B680A431A607B681B689B6823F4AF
:10149000034323F0FF037A6811697A68D268114325
:1014A0007A6812680B4393607B681B68DB6823F0E3
:1014B000FF017B685A697B689B691A437B681B68DC
:1014C0000A43DA607B681B681A687B681B6842F015
:1014D00001021A607B6800221A647B68202283F86C
:1014E0003D207B6800221A637B68002283F83E203F
:1014F000002318461037BD4680BD00BFA0860100FE
:101500007F841E00FF083D0083DE1B43D34D621025
:1015100080B588B002AFF8607A601A460B467B81CE
:1015200013463B81FFF716FC7861FB6893F83D306A
:10153000DBB2202B40F0E0807B690093192301226D
:101540007049F86800F064F90346002B01D00223CB
:10155000D3E0FB6893F83C30012B01D10223CCE0AF
:10156000FB68012283F83C20FB681B681B6803F0C2
:101570000103012B07D0FB681B681A68FB681B6816
:1015800042F001021A60FB681B681A68FB681B685E
:1015900022F400621A60FB68212283F83D20FB6878
:1015A000102283F83E20FB6800221A64FB687A68E8
:1015B0005A62FB683A895A85FB685B8D9AB2FB6870
:1015C0001A85FB68504ADA6279897B693A6AF86859
:1015D00000F09CF80346002B01D001238DE000238E
:1015E0003B61FB681B685B693B61FB681B689B692F
:1015F0003B613B6966E07A69396AF86800F0DEF9B8
:101600000346002B0DD0FB681B6C042B07D1FB6835
:101610001B681A68FB681B6842F400721A60012399
:101620006BE0FB685B6A1A78FB681B681A61FB68F1
:101630005B6A5A1CFB685A62FB685B8D9BB2013B7C
:101640009AB2FB685A85FB681B8D013B9AB2FB6816
:101650001A85FB681B685B6903F00403042B1BD12C
:10166000FB681B8D002B17D0FB685B6A1A78FB6840
:101670001B681A61FB685B6A5A1CFB685A62FB684C
:101680005B8D9BB2013B9AB2FB685A85FB681B8D50
:10169000013B9AB2FB681A857A69396AF86800F0EA
:1016A000CEF90346002B0DD0FB681B6C042B07D131
:1016B000FB681B681A68FB681B6842F400721A60BA
:1016C00001231AE0FB681B8D002B94D1FB681B687B
:1016D0001A68FB681B6842F400721A60FB682022DB
:1016E00083F83D20FB68002283F83E20FB6800223F
:1016F00083F83C20002300E0022318461837BD463B
:1017000080BD00BF020010000000FFFF80B588B060
:1017100002AFF8607A603B600B467B81FB68DB6A56
:101720007B617B69082B06D07B69012B03D07B6929
:1017300013F5803F08D1FB681B681A68FB681B68BB
:1017400042F480721A600BE0FB681B6B122B07D10E
:10175000FB681B681A68FB681B6842F480721A6099
:101760003B6800937B6800224FF00111F86800F09D
:101770004FF80346002B0DD0FB681B681B6803F471
:101780008073B3F5807F03D1FB684FF400721A6455
:10179000032335E0FB681B69B3F5804F08D17B89D3
:1017A000DBB21A46FB681B6802F0FE021A611BE0FE
:1017B0007B89DB11DBB203F00603DBB263F00F03BE
:1017C000DAB2FB681B681A613B687A680E49F868F0
:1017D00000F075F80346002B01D0012310E07B894F
:1017E000DAB2FB681B681A613B687A680749F868D7
:1017F00000F065F80346002B01D0012300E0002330
:1018000018461837BD4680BD0800010002000100DF
:1018100080B584B000AFF860B9603B601346FB71DF
:1018200025E03B68B3F1FF3F21D0FFF793FA024672
:10183000BB69D31A3A689A4202D33B68002B16D18F
:10184000FB6800221A63FB68202283F83D20FB68B6
:10185000002283F83E20FB681B6C43F02002FB68EB
:101860001A64FB68002283F83C20012323E0BB6854
:101870001B0CDBB2012B0DD1FB681B685B69DA43E3
:10188000BB6813409BB2002B0CBF01230023DBB2CB
:101890001A460CE0FB681B689B69DA43BB6813407F
:1018A0009BB2002B0CBF01230023DBB21A46FB794D
:1018B0009A42B6D0002318461037BD4680BD80B589
:1018C00084B000AFF860B9607A603B6051E0FB68BB
:1018D0001B685B6903F48063B3F5806F23D1FB68F9
:1018E0001B681A68FB681B6842F400721A60FB6888
:1018F0001B686FF480625A61FB6800221A63FB6800
:10190000202283F83D20FB68002283F83E20FB68FC
:101910001B6C43F00402FB681A64FB68002283F826
:101920003C20012346E07B68B3F1FF3F21D0FFF765
:1019300011FA02463B68D31A7A689A4202D37B684E
:10194000002B16D1FB6800221A63FB68202283F863
:101950003D20FB68002283F83E20FB681B6C43F0AF
:101960002002FB681A64FB68002283F83C200123F4
:1019700020E0BB681B0CDBB2012B0CD1FB681B68A1
:101980005B69DA43BB6813409BB2002B14BF012391
:101990000023DBB20BE0FB681B689B69DA43BB6882
:1019A00013409BB2002B14BF01230023DBB2002B9A
:1019B0008DD1002318461037BD4680BD80B584B058
:1019C00000AFF860B9607A602DE0F86800F078F850
:1019D0000346002B01D001232DE0BB68B3F1FF3F8C
:1019E00021D0FFF7B7F902467B68D31ABA689A424A
:1019F00002D3BB68002B16D1FB6800221A63FB6878
:101A0000202283F83D20FB68002283F83E20FB68FB
:101A10001B6C43F02002FB681A64FB68002283F809
:101A20003C20012307E0FB681B685B6903F080032F
:101A3000802BCAD1002318461037BD4680BD80B523
:101A400084B000AFF860B9607A602DE0F86800F00B
:101A500037F80346002B01D001232DE0BB68B3F11A
:101A6000FF3F21D0FFF776F902467B68D31ABA68A8
:101A70009A4202D3BB68002B16D1FB6800221A637E
:101A8000FB68202283F83D20FB68002283F83E207B
:101A9000FB681B6C43F02002FB681A64FB680022A1
:101AA00083F83C20012307E0FB681B685B6903F0B7
:101AB0000403042BCAD1002318461037BD4680BD4D
:101AC00080B483B000AF78607B681B685B6903F407
:101AD0008063B3F5806F1BD17B681B686FF48062F5
:101AE0005A617B6800221A637B68202283F83D20BC
:101AF0007B68002283F83E207B681B6C43F0040265
:101B00007B681A647B68002283F83C20012300E094
:101B1000002318460C37BD465DF8047B7047000073
:101B200080B586B000AF78607B68002B01D10123BF
:101B300064E27B681B6803F00103002B75D0A34BA4
:101B40009B6803F00C03042B0CD0A04B9B6803F0A4
:101B50000C03082B12D19D4B5B6803F48003B3F593
:101B6000800F0BD1994B1B6803F40033002B5BD023
:101B70007B685B68002B57D101233FE27B685B6881
:101B8000B3F5803F06D1914B1B68904A43F48033F4
:101B900013601DE07B685B68B3F5A02F0CD18B4B05
:101BA0001B688A4A43F480231360884B1B68874A6A
:101BB00043F4803313600BE0844B1B68834A23F4A7
:101BC00080331360814B1B68804A23F480231360A9
:101BD0007B685B68002B13D0FFF7BCF8386108E026
:101BE000FFF7B8F802463B69D31A642B01D90323E7
:101BF00004E2764B1B6803F40033002BF0D014E0B2
:101C0000FFF7A8F8386108E0FFF7A4F802463B693F
:101C1000D31A642B01D90323F0E16C4B1B6803F446
:101C20000033002BF0D100E000BF7B681B6803F09D
:101C30000203002B63D0654B9B6803F00C03002B61
:101C40000BD0624B9B6803F00C03082B1CD15F4B3D
:101C50005B6803F48003002B16D15C4B1B6803F018
:101C60000203002B05D07B68DB68012B01D0012328
:101C7000C4E1564B1B6823F0F8027B681B69DB004C
:101C8000524913430B603AE07B68DB68002B20D09D
:101C90004F4B01221A60FFF75DF8386108E0FFF74B
:101CA00059F802463B69D31A022B01D90323A5E157
:101CB000464B1B6803F00203002BF0D0434B1B681C
:101CC00023F0F8027B681B69DB00404913430B607B
:101CD00015E03F4B00221A60FFF73CF8386108E03E
:101CE000FFF738F802463B69D31A022B01D90323C8
:101CF00084E1364B1B6803F00203002BF0D17B68B4
:101D00001B6803F00803002B30D07B685B69002B55
:101D100016D0304B01221A60FFF71CF8386108E03A
:101D2000FFF718F802463B69D31A022B01D90323A7
:101D300064E1264B5B6F03F00203002BF0D015E04B
:101D4000244B00221A60FFF705F8386108E0FFF71E
:101D500001F802463B69D31A022B01D903234DE156
:101D60001A4B5B6F03F00203002BF0D17B681B68FA
:101D700003F00403002B00F0A0800023FB75134B3D
:101D80001B6C03F08053002B0FD10023BB600F4B63
:101D90001B6C0E4A43F0805313640C4B1B6C03F016
:101DA0008053BB60BB680123FB750B4B1B6803F4BE
:101DB0008073002B21D1084B1B68074A43F48073C2
:101DC0001360FEF7C7FF386111E000BF0038024022
:101DD00000004742800E474200700040FEF7BAFF05
:101DE00002463B69D31A022B01D9032306E1854B36
:101DF0001B6803F48073002BF0D07B689B68012B79
:101E000006D1814B1B6F804A43F0010313671CE02E
:101E10007B689B68052B0CD17B4B1B6F7A4A43F088
:101E200004031367784B1B6F774A43F00103136772
:101E30000BE0754B1B6F744A23F001031367724B61
:101E40001B6F714A23F0040313677B689B68002BA8
:101E500015D0FEF77FFF38610AE0FEF77BFF0246F0
:101E60003B69D31A41F28832934201D90323C5E07A
:101E7000654B1B6F03F00203002BEED014E0FEF75E
:101E800069FF38610AE0FEF765FF02463B69D31A35
:101E900041F28832934201D90323AFE05A4B1B6FC2
:101EA00003F00203002BEED1FB7D012B05D1564B35
:101EB0001B6C554A23F0805313647B689B69002B8D
:101EC00000F09B80504B9B6803F00C03082B5CD008
:101ED0007B689B69022B41D14C4B00221A60FEF7B4
:101EE00039FF386108E0FEF735FF02463B69D31A37
:101EF000022B01D9032381E0434B1B6803F00073DD
:101F0000002BF0D17B68DA697B681B6A1A437B6817
:101F10005B6A9B011A437B689B6A5B08013B1B045D
:101F20001A437B68DB6A1B06374913434B60374B08
:101F300001221A60FEF70EFF386108E0FEF70AFF83
:101F400002463B69D31A022B01D9032356E02E4BDC
:101F50001B6803F00073002BF0D04EE02B4B0022E7
:101F60001A60FEF7F7FE386108E0FEF7F3FE02465E
:101F70003B69D31A022B01D903233FE0224B1B6894
:101F800003F00073002BF0D137E07B689B69012BD5
:101F900001D1012332E01C4B5B68FB607B689B69CD
:101FA000012B28D0FB6803F480027B68DB699A422E
:101FB00021D1FB6803F03F027B681B6A9A421AD169
:101FC000FA6847F6C07313407A68526A92019342E6
:101FD00011D1FB6803F440327B689B6A5B08013BCC
:101FE0001B049A4207D1FB6803F070627B68DB6ACE
:101FF0001B069A4201D0012300E00023184618373F
:10200000BD4680BD0070004000380240600047427D
:1020100080B584B000AF786039607B68002B01D157
:102020000123CCE0684B1B6803F007033A689A422F
:102030000CD9654B3A68D2B21A70634B1B6803F037
:1020400007033A689A4201D00123B8E07B681B6815
:1020500003F00203002B20D07B681B6803F004030D
:10206000002B05D0594B9B68584A43F4E0539360CA
:102070007B681B6803F00803002B05D0534B9B685B
:10208000524A43F460439360504B9B6823F0F00244
:102090007B689B684D4913438B607B681B6803F02A
:1020A0000103002B44D07B685B68012B07D1474BB1
:1020B0001B6803F40033002B19D101237FE07B68F8
:1020C0005B68022B03D07B685B68032B07D13F4B17
:1020D0001B6803F00073002B09D101236FE03B4B19
:1020E0001B6803F00203002B01D1012367E0374B8B
:1020F0009B6823F003027B685B68344913438B6061
:10210000FEF728FEF8600AE0FEF724FE0246FB68B0
:10211000D31A41F28832934201D903234FE02B4B6B
:102120009B6803F00C027B685B689B009A42EBD1D2
:10213000254B1B6803F007033A689A420CD2224BE6
:102140003A68D2B21A70204B1B6803F007033A6852
:102150009A4201D0012332E07B681B6803F004033C
:10216000002B08D0194B9B6823F4E0527B68DB6896
:10217000164913438B607B681B6803F00803002B30
:1021800009D0124B9B6823F460427B681B69DB001B
:102190000E4913438B6000F021F802460B4B9B68FD
:1021A0001B0903F00F030A49CB5C22FA03F3094A27
:1021B0001360094B1B681846FEF788FD002318467C
:1021C0001037BD4680BD00BF003C024000380240D1
:1021D000804200080000002004000020B0B584B058
:1021E00000AF002179600021F960002139600021F1
:1021F000B9605249896801F00C0108290DD00829FD
:1022000000F29480002902D0042903D08EE04C4BC8
:10221000BB608EE04B4BBB608BE04849496801F0E6
:102220003F0179604549496801F48001002924D0C3
:1022300042494968890908464FF0000140F2FF14FD
:102240004FF0000500EA040201EA05033D4901FBE5
:1022500003F0002101FB02F144183A49A2FB0101FD
:10226000631819467B681A464FF00003FEF710F812
:1022700002460B461346FB604AE0304B5B689B0905
:102280001A464FF0000340F2FF104FF0000102EA3F
:10229000000403EA0105204629464FF000024FF0F2
:1022A00000034B0143EAD063420110461946001B6C
:1022B00061EB05014FF000024FF000038B0143EA90
:1022C00090638201121A63EB01034FF000004FF09C
:1022D0000001D90041EA5271D00002460B461219A2
:1022E00045EB03034FF000004FF00001990241EA73
:1022F0009251900202460B46104619467B681A46D8
:102300004FF00003FDF7C4FF02460B461346FB6087
:102310000A4B5B681B0C03F0030301335B003B605B
:10232000FA683B68B2FBF3F3BB6002E0044BBB60AE
:1023300000BFBB6818461037BD46B0BD003802402C
:102340000024F40040787D0180B400AF034B1B688B
:102350001846BD465DF8047B704700BF00000020B2
:1023600080B500AFFFF7F0FF0246054B9B689B0A64
:1023700003F007030349CB5C22FA03F3184680BD40
:102380000038024090420008014B1868704700BFB7
:102390000C00002070B505460C4611B900263046E9
:1023A00070BD18B183690BB900F018FA2C4B9C4230
:1023B00014D16C68636ED80705D4A389990502D43B
:1023C000A06D00F057FCB4F90C308BB9666E16F0B6
:1023D0000106E3D1A06D00F04EFCE0E7214B9C42EA
:1023E00001D1AC68E6E7204B9C4208BFEC68E1E70E
:1023F0002146284600F042F8236B064633B1216A95
:10240000284698470028B8BF4FF0FF36A3891A0620
:1024100003D52169284600F0A9FC616B41B104F1A4
:102420004403994202D0284600F0A0FC00236363D5
:10243000A16C21B1284600F099FC0023A36400F0B0
:10244000B5F90023A381636EDB0702D4A06D00F011
:1024500012FCA06D00F00DFC00F0AEF99FE700BF8C
:10246000B8420008D842000898420008024B0146D2
:102470001868FFF78FBF00BF0C0000208A892DE984
:10248000F041054610070C4658D44B68002B05DC7C
:102490000B6C002B02DC0020BDE8F081E66A002E08
:1024A000F9D0002312F480522F682B6032D0606D77
:1024B000A3895A0705D56368C01A636B0BB1236CF7
:1024C000C01A00230246E66A216A2846B047431C28
:1024D000A38906D129681D292CD82A4ACA40D607C3
:1024E00028D500226260D9042269226004D5421CEA
:1024F00001D12B6803B96065616B2F600029CAD0D8
:1025000004F14403994202D0284600F02FFC002039
:102510006063C1E7216A01232846B047411CC7D147
:102520002B68002BC4D01D2B01D0162B01D12F609E
:10253000B1E7A38943F04003A381ADE70F69002F02
:10254000A9D093070E6808BF4B690F6018BF00231E
:10255000A6EB07088B60B8F1000F9CDD216AA66A24
:1025600043463A462846B047002806DCA38943F094
:102570004003A3814FF0FF308EE70744A8EB00082B
:10258000E9E700BF0100402038B50B6905460C465D
:1025900013B90025284638BD18B183690BB900F07E
:1025A0001DF9144B9C421BD16C68B4F90C30002B04
:1025B000EFD0626ED00704D4990502D4A06D00F06C
:1025C00059FB28462146FFF759FF636EDA07054697
:1025D000E0D4A3899B05DDD4A06D00F04CFBD9E7C6
:1025E000054B9C4201D1AC68DFE7044B9C4208BF1D
:1025F000EC68DAE7B8420008D842000898420008C0
:10260000014620B9044B0549186800F0EEBA044BA6
:102610001868FFF7B9BF00BFF84200088925000815
:102620000C000020012A2DE9F04780460D46174690
:102630001C4603DC00252846BDE8F08718B18369F5
:102640000BB900F0CBF8314B9C4220D1D8F80440B4
:10265000636EDE0705D4A389980502D4A06D00F04F
:1026600009FB013FA9466668F6B92146404600F0DD
:1026700043FCC0B1A94545D1636ED907DAD4A58919
:1026800015F40075D6D1A06D00F0F5FAD3E7204B14
:102690009C4202D1D8F80840DAE71E4B9C4208BFA2
:1026A000D8F80C40D4E76668D4F800A0BE4228BF32
:1026B0003E4632460A215046FDF792FD6368A0B1BE
:1026C0000130A0EB0A069B1BC4E9000332465146C9
:1026D000484600F035FB002309F80630636EDA0740
:1026E000A9D4A3899B05A6D4CDE79B1B636023686F
:1026F0003344484623603246514600F021FBBF1B5D
:10270000B144B0D1002389F80030E7E7B8420008AF
:10271000D84200089842000813460A46014602487B
:102720000068FFF77FBF00BF0C000020002310B53A
:102730000446C0E90033C0E9043383608181436605
:10274000C2818361194608225C3000F007FB054B0B
:102750006362054BA362054BE362054B246223636E
:1027600010BD00BFC5300008EB3000082331000861
:1027700047310008014900F038BA00BF8925000838
:1027800070B54A1E682555430E4605F1740100F0E8
:102790003DFB044640B10021C0E900160C30A060AA
:1027A00005F1680200F0DAFA204670BD014800F039
:1027B00061BA00BF30010020014800F05CBA00BFE0
:1027C00030010020014800F055BA00BF2B01002065
:1027D000014800F050BA00BF2B01002010B504469C
:1027E000FFF7F0FFA3691BB1BDE81040FFF7F0BF92
:1027F000C4E912332365134B134A1B68A262A34238
:1028000004BF0123A361204600F020F86060204649
:1028100000F01CF8A060204600F018F80022E060EC
:1028200004216068FFF782FFA06801220921FFF7F9
:102830007DFFE06802221221FFF778FF0123A361E8
:10284000D2E700BFF842000875270008F8B5074630
:10285000FFF7ACFF1E4B1E68B36913B93046FFF794
:10286000BDFF4836D6E90134013B03D533680BB3CD
:102870003668F7E7B4F90C50D5B9164BE36004F1AC
:102880005800656600F0F4F9FFF796FFC4E90155BA
:10289000C4E904552560A5610822294604F15C00BD
:1028A00000F05CFAC4E90D55C4E912552046F8BDA4
:1028B0006834D9E704213846FFF762FF04463060E8
:1028C0000028D5D1FFF778FF0C233B60EEE700BF6F
:1028D000F84200080100FFFFF7B50F46114601AAB4
:1028E000054600F057FC064618B90024204603B000
:1028F000F0BD2846FFF7AAFF04460028F5D0394668
:10290000019A4FF4DB73284600F0DAFA071E09DA61
:102910000025FFF74BFFA06DA58100F0AAF9FFF796
:102920004BFFE2E7636EDB0705D4A389980502D469
:10293000A06D00F09FF90E4B63620E4BA3620E4B2D
:10294000E362F1050D4BE781A6812462236305D57F
:10295000022300222146284600F01AF8636EDA07A7
:10296000C4D4A3899B05C1D4A06D00F084F9BDE750
:10297000C5300008EB30000823310008473100085B
:10298000024B0A4601461868FFF7A6BF0C0000205C
:1029900000F000B82DE9F0410C4617461E460546EA
:1029A00018B183690BB9FFF719FF444B9C4222D140
:1029B0006C68636ED90705D4A3899A0502D4A06D0B
:1029C00000F058F9A38903F48473B3F5847F03D12D
:1029D00021462846FFF7D8FDD4F82C80B8F1000F27
:1029E00013D11D232B60636ED9075DD54FF0FF36E1
:1029F0003046BDE8F081324B9C4201D1AC68D8E74B
:102A0000304B9C4208BFEC68D3E7012E36D036F03D
:102A1000020347D123691BB92146284600F050F92B
:102A200021462846FFF7B0FD0028DCD1216A334655
:102A30003A462846C0470130D5D0616B41B104F118
:102A40004403994202D0284600F090F900236363C2
:102A500023692360A389002523F402636560A381B1
:102A60000822294604F15C0000F078F9666E16F041
:102A7000010620D1A3899B05BAD40CE02146284643
:102A800000F022F8431C064609D1636EDD07ADD481
:102A9000A3899805AAD4A06D00F0EDF8A8E7074433
:102AA0000026B7E716239DE7A3899A059ED4A06D5B
:102AB00000F0E1F89AE72E469AE700BFB842000816
:102AC000D84200089842000870B50C46054618B177
:102AD00083690BB9FFF782FE324B9C4214D16C68BC
:102AE000636EDA0705D4A3899B0502D4A06D00F0BC
:102AF000C1F8E66ACEB91D232B60636EDE070DD5E3
:102B00004FF0FF35284670BD274B9C4201D1AC6881
:102B1000E6E7264B9C4208BFEC68E1E7A3899D05E8
:102B2000EED4A06D00F0A7F8EAE7A28902F00C034A
:102B3000082B19D12368BBB121695B1A002B13DD67
:102B4000D00511D502230022216A2846B047411C36
:102B500005460DD1636EDA07D2D4A3899B05CFD485
:102B6000A06D00F088F8CDE712F480520FD0656DAB
:102B7000A28956070DD56368ED1A636B0BB1236C00
:102B8000ED1A636ED907BDD49305BBD4E8E70123E2
:102B9000DAE71007F5D52368002BF2D021695B1A1C
:102BA0001D44EEE7B8420008D842000898420008E9
:102BB0002DE9F0410F4600F148040026D4E90185D3
:102BC000B8F1010805D52468002CF7D13046BDE8DE
:102BD000F081AB89012B06D9B5F90E30013302D053
:102BE0002846B84706436835EAE72DE9F843064624
:102BF000884600F148040027D4E90195B9F101099C
:102C000005D52468002CF7D13846BDE8F883AB8998
:102C1000012B07D9B5F90E30013303D029463046D0
:102C2000C04707436835E9E770B50D4D0D4C641B8F
:102C3000A4100026A64209D10B4D0C4C01F000FB5C
:102C4000641BA4100026A64205D170BD55F8043BB4
:102C500098470136EEE755F8043B98470136F2E70E
:102C600054440008544400085444000858440008E0
:102C7000704770477047704770B50E46B1F90E1037
:102C8000002996B014461D4607DA00232B60B3894D
:102C90001A0610D44FF480630EE06A4600F0B0FAD2
:102CA0000028F2DB019A02F47042A2F500535A4266
:102CB0005A412A60EEE740230020236016B070BD21
:102CC0008B8973B59D0706460C4607D504F147036B
:102CD000236023610123636102B070BD01AB6A46CA
:102CE000FFF7CAFF00990546304600F08FF848B953
:102CF000B4F90C309A05EFD423F0030343F0020338
:102D0000A381E3E70D4BB362A389206043F0800306
:102D1000A381009B6361019B20615BB1B4F90E103C
:102D2000304600F07FFA28B1A38923F0030343F073
:102D30000103A381A0890543A581CDE7752700087C
:102D40000A44914200F1FF3300D1704710B511F8E9
:102D5000014B03F8014F9142F9D110BD02440346E3
:102D6000934200D1704703F8011BF9E737B50029FA
:102D700048D051F8043C0190002BA1F10404B8BFE5
:102D8000E41800F071FA204A01981368154633B927
:102D90006360146003B0BDE8304000F06BBAA3423A
:102DA0000BD921686218934204BF1A685B6863609C
:102DB00004BF521822602C60ECE71A465B680BB126
:102DC000A342FAD911685518A5420BD124682144B1
:102DD0005418A3421160DDD11C685B685360214424
:102DE0001160D7E702D90C230360D3E72568611986
:102DF0008B4204BF19685B68636004BF4919216096
:102E00005460C7E703B030BD94000020F8B5CD1C76
:102E100025F0030508350C2D38BF0C25002D06467E
:102E200001DBA94203D90C2333600020F8BD00F078
:102E30001BFA21490A6814469CB9204F3B6823B904
:102E40002146304600F0E2F838602946304600F06E
:102E5000DDF8431C23D10C233360304600F00AFA1E
:102E6000E3E723685B1B17D40B2B03D923601C44B7
:102E7000256004E06368A2420CBF0B6053603046DB
:102E800000F0F8F904F10B00231D20F00700C21A2E
:102E9000CCD01B1AA350C9E722466468CCE7C41CF7
:102EA00024F00304A042E3D0211A304600F0AEF82B
:102EB0000130DDD1CFE700BF940000209800002052
:102EC00038B5074D04460846114600222A601A46C6
:102ED000FDF759FE431C02D12B6803B1236038BDB6
:102EE00034010020838903F00903092B01D1FFF786
:102EF00087BB002070470000F8B50C46054618B1A6
:102F000083690BB9FFF76AFC3B4B9C420AD16C68A2
:102F1000B4F90C2000236360A3899E060CD54FF002
:102F2000FF3066E0354B9C4201D1AC68F0E7344B92
:102F30009C4208BFEC68EBE7580748D4D90605D493
:102F400009232B6042F04003A381E8E71A070BD561
:102F500021462846FFF718FB0028E0D1A389A0608E
:102F600023F00803A381A061A38943F00403A38194
:102F700023691BB921462846FFF7A2FEA689B4F9AA
:102F80000C70B3070FD00123A3811E4B1E49186894
:102F900006F00906FFF70CFE092EA78103D1214692
:102FA0002846FFF76BFA2269666A6369216A226024
:102FB0002846B047002860601CDCB4F90C3017BF0D
:102FC000002243F02003626043F04003BCE7616BE2
:102FD0000029CDD004F14403994202D02846FFF7DE
:102FE000C5FE236C636000206063002BC0D0E36BE0
:102FF0002360F8BD0020FCE7B8420008D842000872
:1030000098420008F8420008E52E000838B5064D41
:103010000023044608462B60FDF7C4FD431C02D183
:103020002B6803B1236038BD340100200EB400B515
:103030009CB01DAB029006906FF0004109480791CB
:103040000491094953F8042B05910068019302A9E2
:1030500000F072F9029B00221A701CB05DF804EBBC
:1030600003B070470C0000200802FFFF0EB410B53B
:103070009FB021AC4FF4017154F8042B0192ADF8CC
:103080001C1004900890FDF7FBF80C4B059009907C
:103090000D930B48019A0068039400231193169333
:1030A0004FF6FF73ADF81E3004A9234600F09EFAD8
:1030B0001FB0BDE8104003B0704700BFE730000804
:1030C0000C00002010B50C46B1F90E1000F0E6FE21
:1030D0000028ABBF636DA3891B1823F48053ACBFDA
:1030E0006365A38110BD002070472DE9F0411F46A4
:1030F0008B89DB0505460C46164605D5B1F90E1041
:103100000223002200F09EF8A389B4F90E1023F4E4
:103110008053A38132463B462846BDE8F04100F08B
:1031200017B810B50C46B1F90E1000F08BF8431C1F
:10313000A38915BF606523F4805343F48053A381B2
:1031400018BFA38110BDB1F90E1000F013B8000034
:1031500038B5074D04460846114600222A601A4633
:10316000FDF7C1FC431C02D12B6803B1236038BDBD
:103170003401002038B5064D0023044608462B6074
:10318000FDF7CDFC431C02D12B6803B1236038BD91
:10319000340100200B78722B30B522D0772B24D04D
:1031A000612B27D016230360002030BD622D12D082
:1031B000782D13D02B2D07D120F01C0023F0030312
:1031C00040F0100043F0020311F8015F002DEDD133
:1031D00023431360E9E743F48033F5E743F40063E6
:1031E000F2E7002423460420EEE74FF4C0640123F5
:1031F0000820E9E74FF4027401234FF48470E3E7F9
:1032000038B5074D00230446084611462B60FDF7EC
:1032100092FC431C02D12B6803B1236038BD00BF70
:103220003401002038B5064D0023044608462B60C3
:10323000FDF791FC431C02D12B6803B1236038BD1C
:103240003401002038B5074D0446084611460022D7
:103250002A601A46FDF78AFC431C02D12B6803B191
:10326000236038BD340100200148FFF703BD00BFD3
:103270002C0100200148FFF7FEBC00BF2C010020FC
:103280002DE9F0478E689E4282460C4690461F46C6
:1032900038D88A8912F4906F32D025680969A5EB75
:1032A0000109656905EB450505EBD57501334B440F
:1032B0006D109D4238BF1D46530531D52946FFF795
:1032C000A5FD064650B90C23CAF80030A38943F087
:1032D0004003A3814FF0FF30BDE8F08721694A46E3
:1032E000FFF72EFDA38923F4906343F08003A381AD
:1032F000266165614E44A5EB09052660A5603E4642
:10330000BE4200D93E4632462068414600F050FF9A
:10331000A36822689B1B3244A36022600020DBE785
:103320002A4600F05FFF06460028E1D12169504699
:10333000FFF71CFDC7E700002DE9F04F98468B8989
:103340001B069DB007460D4614460ED50B6963B9A2
:103350004021FFF75BFD2860286120B90C233B600A
:103360004FF0FF30D1E040236B610023099320230D
:103370008DF82930CDF80C803023DFF8A8818DF846
:103380002A304FF0010923469A4613F8012B0AB15F
:10339000252AF9D1BAEB040B0BD05B46224629460D
:1033A0003846FFF76DFF013000F0AA80099A5A44B1
:1033B00009929AF80030002B00F0A28000234FF011
:1033C000FF32CDE905230AF1010A049307938DF832
:1033D00053301A935446052214F8011B5148FCF748
:1033E000FFFE049AD8B9D00644BF20238DF853308D
:1033F000110744BF2B238DF853309AF800302A2B45
:1034000015D0079A544600204FF00A0C214611F8B7
:10341000013B303B092B4ED9B0B1079214E0A0EB31
:10342000080309FA03F313430493A246D2E7039B6C
:10343000191D1B680391002BBBBF5B4242F00202C7
:1034400007930793B8BF049223782E2B0CD163788F
:103450002A2B35D1039B1A1D1B680392002BB8BF82
:103460004FF0FF3302340593DFF8C8A02178032220
:103470005046FCF7B5FE40B14023A0EB0A0003FA2A
:1034800000F0049B03430134049314F8011B264805
:103490008DF828100622FCF7A3FE002838D0234B15
:1034A0001BBB039B073323F0070308330393099BDC
:1034B0003344099367E70CFB02320C460120A5E771
:1034C00000230134059319464FF00A0C204610F8EA
:1034D000012B303A092A03D9002BC5D00591C3E747
:1034E0000CFB012104460123F0E703AB00932A46BD
:1034F0000F4B04A93846AFF30080421C0646D6D1D4
:10350000AB895B063FF52CAF09981DB0BDE8F08F85
:1035100003AB00932A46064B04A9384600F04CFA48
:10352000EBE700BFFC420008064300080000000073
:10353000813200080243000838B54B1C144603D101
:103540004FF0FF35284638BD938923F0200393813F
:10355000636B5268CDB28BB1A36B934208DD2368D5
:103560005A1E226003F8015C636801336360E9E777
:10357000214600F0E3FD0028F1D0E1E7216923684E
:1035800051B1994208D213F8011CA94204D1013B60
:10359000013223606260D5E7C4E90F3204F14403CD
:1035A00063630323A363234603F8465F2360012379
:1035B000DCE710B50C46496B69B104F1440399424C
:1035C00001D0FFF7D3FB236C63600020606313B16D
:1035D000E36B236010BD2369236000236360A3892C
:1035E00043F02003A3814FF0FF30F3E72DE9F04FC4
:1035F0000C46ADF5237D0021CDE94411B249A091DF
:103600000DF10408B149B24FDFF8C892CDF8188126
:103610000646A191009392F800A0BAF1000F00F0C5
:1036200051811AF8073013F0080302F1010519D08F
:103630006368002B0FDD23681A78BA5C120701D487
:103640002A46E8E7459A0132459262680133013A19
:1036500062602360ECE7A19B214630469847002832
:10366000E9D0EDE7BAF1250F40F083804193439311
:1036700053782A2B02BF1023951C41930A22AB4694
:103680001BF8011BA1F13003092B1DD9914803221E
:10369000FCF7A6FD40B10123A0EB090003FA00F0FE
:1036A000419B184341905D4615F8013B782B06D8A5
:1036B000572B10D8252B5CD056D8002B74D0032361
:1036C00047930A23429381E0439B02FB0313303B61
:1036D00043935D46D3E7A3F15802202AEFD801A116
:1036E00051F822F0B7370008BF360008BF3600088F
:1036F00015380008BF360008BF360008BF3600087E
:10370000BF360008BF360008BF360008BF360008C5
:103710002B380008013800086F3700086F370008A1
:103720006F370008BF36000805380008BF360008AC
:10373000BF360008BF360008BF3600083B38000817
:103740000D380008AF370008BF360008BF36000844
:1037500037380008BF36000801380008BF360008B7
:10376000BF360008B7370008453B022BA7D8052312
:103770002BE06368002B0DDD23681A78524540F07A
:10378000A180013362682360459B013A0133626086
:10379000459355E7A19B2146304698470028EBD03A
:1037A0004498002840F084804FF0FF3086E0419A32
:1037B00042F020024192419A42F40072419210225A
:1037C0006F2B429234BF0323042347936368002B7B
:1037D00041DD419B590604D423681A78BA5C12076C
:1037E00040D4479B022B4FDC6B46224641A9304612
:1037F00000F008FA012865D002287FF421AFCFE756
:103800000A22DDE7002342930323DEE708234293E5
:103810000423DAE72946404600F052FB419B43F07F
:103820004003419305460123CFE7419B43F040030A
:1038300041930023C9E70223C7E74198C3063FF538
:10384000FFAE009B459A191D00911B68C0074CBF35
:103850001A801A60F4E6A19B21463046984700285A
:10386000B7D09DE7459A013245926268013A002A35
:10387000626002DD01332360AEE7A19B2146304642
:1038800098470028A8D08BE7042B06DC6B4622461D
:1038900041A9304600F00EFAACE70F4B002B3FF485
:1038A000CFAE6B46224641A93046AFF30080A1E778
:1038B000A38913F0400F18BF4FF0FF300DF5237DA3
:1038C000BDE8F08F4498F9E739350008B3350008B2
:1038D0004B43000802430008000000002DE9F047B8
:1038E000164699468A680B69DDF820809342B8BF76
:1038F0001346336091F8432007460C460AB1013362
:1039000033602368990642BF336802333360256809
:1039100015F0060506D104F1190AE36832689B1A0E
:10392000AB4226DC94F84320131E226818BF012303
:1039300092062BD404F1430249463846C047013071
:103940001ED02368E568326803F00603042B08BF25
:10395000AD1AA36822690CBF25EAE57500259342DC
:10396000C4BF9B1AED1800261A34B5421AD10020A4
:1039700008E00123524649463846C047013003D18A
:103980004FF0FF30BDE8F0870135C6E7E1185A1C5B
:10399000302081F84300224494F8451082F8431007
:1039A0000233C7E70123224649463846C047013063
:1039B000E6D00136D9E700002DE9FF470C469146D5
:1039C000277E0C99782F80469A4604F1430207D847
:1039D000622F0AD8002F00F0D880582F00F0A38063
:1039E00004F1420684F842703AE0A7F16303152B14
:1039F000F6D801A050F823F0513A0008653A0008C3
:103A0000E1390008E1390008E1390008E13900082E
:103A1000653A0008E1390008E1390008E139000899
:103A2000E1390008713B0008953A0008533B000853
:103A3000E1390008E1390008933B0008E13900084A
:103A4000953A0008E1390008E13900085B3B0008BD
:103A50000B681A1D1B680A6004F1420684F84230A4
:103A60000123A3E0256808682E0600F104030AD5A7
:103A700005680B60002D03DA2D236D4284F8433076
:103A80005E480A2319E015F0400F05680B6018BF67
:103A90002DB2EFE70B682568181D0860280601D5D0
:103AA0001D6802E06906FBD51D8854486F2F0CBFC6
:103AB00008230A23002184F843106668A660002EBC
:103AC000A2BF216821F0040121600DB9002E4DD064
:103AD0001646B5FBF3F103FB1157C75D06F8017DF0
:103AE0002F46BB420D46F4D9082B0BD12368DF07C4
:103AF00008D5236961689942DEBF302306F8013C8E
:103B000006F1FF36921B2261CDF800A04B4603AAB6
:103B100021464046FFF7E2FE01304CD14FF0FF3026
:103B200004B0BDE8F087354884F8457023680E6816
:103B30001F0656F8045B0E6014D5D90744BF43F046
:103B4000200323601DB9236823F020032360102382
:103B5000B0E7236843F0200323607823284884F8E3
:103B60004530E3E75E0648BFADB2E6E71646BBE781
:103B70000B68266860691D1D0D6035061B6801D540
:103B8000186002E07106FBD51880002323611646F9
:103B9000BAE70B681A1D0A601E6862680021304689
:103BA000FCF71EFB08B1801B606063682361002383
:103BB00084F84330A8E72369324649464046D04757
:103BC0000130ABD023689B0713D4E068039B984275
:103BD000B8BF1846A4E70123324649464046D047BD
:103BE00001309BD00135E36803995B1AAB42F2DCEC
:103BF000EBE7002504F11906F5E700BF0D430008C7
:103C00001E4300082DE9F84315468A6880460C4695
:103C100032B98A69002A0CBF01224FF0FF328A6054
:103C20002268DFF88C90D1065FBF1A68111D1960F9
:103C300016680027A06988B1012807D12B681A7877
:103C400063699B5C53B927BBBDE8F883022820D188
:103C50002B681B7813F809301B071AD42368DA067F
:103C60005EBF2B681B7806F8013B2A686B6801323F
:103C70002A60A268013B013A6B600137A26042B141
:103C8000002BD7DCD4F880312946404698470028DD
:103C9000D0D0236813F0100305D1E2680132E2604E
:103CA000A26902B1337023691F4427610020CBE76A
:103CB0004B4300082DE9F04F9846744B0C46824662
:103CC000164693E8070087B003AB83E80700704B04
:103CD000A169704A032918BF1A46A36801925A1EA7
:103CE000B2F5AE7F88BF6FF4AE75274682BF03EB97
:103CF000050940F25D13A36057F81C3B43F4506381
:103D000098BF4FF0000923603D464FF0000B31682B
:103D100003AB097853F82B000222FCF761FA28B3B1
:103D2000BBF1010F59D162682AB92268082342F415
:103D3000007263602260226822F4A0622260A2689E
:103D4000511EA16092B13268511C3160127805F8A1
:103D5000012B7268013A002A726007DCD4F88021D6
:103D6000314650469047002840F085800BF1010B0A
:103D7000BBF1030FCBD163680BB90A23636063689F
:103D800045496069C91A00F09BF84FF0000BA36821
:103D90002268002B3DD03168606991F800C010F8AE
:103DA0000C00002835D0BCF1300F24D1100522D5ED
:103DB0000BF1010BB9F1000F03D0013309F1FF3909
:103DC000A3607368013B002B73601BDD3368013314
:103DD0003360A368013BA360D9E7BBF1020FAED10A
:103DE000226802F4C061B1F5007FBFD11023636087
:103DF00042F48072A2E722F4106222600B7805F888
:103E0000013BDEE7D4F88031314650469847002820
:103E1000DFD02368D9050DD5BD4209D915F8011C9D
:103E2000D4F87C3132465046984705F1FF394D466B
:103E3000BD4228D0226812F0100213D12A706368A4
:103E4000019E39465046B047D8F8003021681A1D07
:103E5000C8F8002011F0200F1B680FD01860E3682D
:103E60000133E360ED1BAB4425695D44256100200F
:103E700007B0BDE8F08F4FF0000BCAE7CA074CBF90
:103E800018801860EBE70120F2E700BF74420008D9
:103E9000394100083D4000084843000838B5074D47
:103EA00004460846114600222A601A46FCF7FEFD29
:103EB000431C02D12B6803B1236038BD34010020BC
:103EC00070B50B7804465E2B0BBF4B78481C881CE2
:103ED000002208BF0122611E04F1FF0501F8012F35
:103EE000A942FBD10BB9013870BD82F00101E15448
:103EF000421C12F8015C2D2D02F1FF36104606D04F
:103F00005D2DF1D00DB93046EEE72B46EFE7167880
:103F10005D2EFAD0B342F8DC1846013086422154B7
:103F2000FBDCD84330445D1CB342A8BF00202B18F3
:103F30000232DEE7012B2DE9F04701D0242B06D910
:103F4000FEF722FA162303600020BDE8F0873A4FFF
:103F50008E4676461EF8014BE55D15F00805F8D152
:103F60002D2C34D19EF800404FF0010806F1020ECE
:103F7000002B5CD0102B0CD1302C0AD19EF80040C5
:103F800004F0DF04582C4DD19EF8014010230EF1AF
:103F9000020E08F1004C0CF1FF3C0026BCFBF3F9CB
:103FA000354603FB19CAA4F13007092F18D83C463F
:103FB000A34224DD002E1FDBA9451DD301D1A2455C
:103FC0001ADB05FB034501261EF8014BEBE72B2C02
:103FD00008BF9EF80040A84608BF06F1020EC7E7DA
:103FE000A4F14107192F01D8373CE1E7A4F161079B
:103FF000192F04D8573CDBE74FF0FF36E4E7002EDB
:1040000005DA22230360654642B928469DE7B8F1E8
:10401000000F00D06D42002AF7D00EB10EF1FF3133
:104020001160F2E73024002BB3D10823B1E7302C24
:10403000A4D00A23ADE700BF4B430008FFF77ABFC7
:104040002DE9F0433B4E86468C4660461CF8014BFA
:10405000A55D15F00805F8D12D2C34D19CF8004051
:104060004FF0010800F1020C002B5ED0102B0CD198
:10407000302C0AD19CF8000000F0DF0058284FD106
:104080009CF8014010230CF1020C4FF0FF37002583
:10409000B7FBF3F703FB07F96FEA09092846A4F118
:1040A0003006092E18D83446A34224DD002D1FDB2C
:1040B00087421DD301D1A1451ADB00FB0340012536
:1040C0001CF8014BEBE72B2C08BF9CF80040A846DE
:1040D00008BF00F1020CC7E7A4F14106192E01D870
:1040E000373CE1E7A4F16106192E04D8573CDBE721
:1040F0004FF0FF35E4E7002D07DA2223CEF8003039
:104100004FF0FF3042B9BDE8F083B8F1000F00D0A6
:104110004042002AF7D00DB10CF1FF311160F2E7F7
:104120003024002BB1D10823AFE7302CA2D00A23D2
:10413000ABE700BF4B430008FFF782BF2DE9F0411A
:104140000C46496B04F1440399421DD14FF4806140
:10415000FEF75CFE18B94FF0FF30BDE8F0814FF478
:104160008063A36394F84630606380F8FF3394F86B
:10417000453080F8FE3394F8443080F8FD3300F287
:10418000FD3020600020E8E7A66B77003A4600F09B
:1041900029F805460028DED000EB06080146324625
:1041A0004046FEF7CDFDC4E90D57C4F80080E9E7AD
:1041B000884210B501EB020402D98442234607D895
:1041C000431EA14208D011F8012B03F8012FF8E794
:1041D000024401468A4200D110BD13F8014D02F895
:1041E000014DF7E7F8B5074614460E4621B9BDE87C
:1041F000F8401146FEF70ABE22B9FEF7B7FD254684
:104200002846F8BD00F014F8A0420FD221463846E7
:10421000FEF7FCFD05460028F2D031462246FEF7A7
:104220008FFD31463846FEF7A1FDE9E73546E7E761
:1042300051F8043C181F002BBCBF0B58C018704726
:10424000F8B500BFF8BC08BC9E467047F8B500BF83
:08425000F8BC08BC9E46704753
:104258002564000072000000646174612E74787433
:104268000000000025642025730000002F4300088B
:104278003243000835430008000000000000000039
:1042880001020304060708090000000001020304F4
:104298000000000000000000000000000000000016
:1042A8000000000000000000000000000000000006
:1042B80000000000000000000000000000000000F6
:1042C80000000000000000000000000000000000E6
:1042D80000000000000000000000000000000000D6
:1042E80000000000000000000000000000000000C6
:1042F80010000020232D302B2000686C4C006566D0
:10430800674546470030313233343536373839411E
:104318004243444546003031323334353637383934
:10432800616263646566002B2D00303000785800A8
:10433800412D46612D6638393031323334353637C0
:104348005D00002020202020202020202828282848
:10435800282020202020202020202020202020204D
:10436800202020881010101010101010101010109D
:1043780010101004040404040404040404101010AD
:104388001010101041414141414101010101010159
:1043980001010101010101010101010101011010E7
:1043A800101010104242424242420202020202022D
:1043B80002020202020202020202020202021010B9
:1043C80010102000000000000000000000000000A5
:1043D80000000000000000000000000000000000D5
:1043E80000000000000000000000000000000000C5
:1043F80000000000000000000000000000000000B5
:1044080000000000000000000000000000000000A4
:104418000000000000000000000000000000000094
:104428000000000000000000000000000000000084
:104438000000000000000000000000000000000074
:044448000000000070
:08444C0074BEFF7F01000000B7
:04445400C501000896
:04445800A1010008B6
:10445C000024F400100000000100000010000020F7
:10446C0000000000B8420008D8420008984200083A
:10447C000000000000000000000000000000000030
:10448C000000000000000000000000000000000020
:10449C000000000000000000000000000000000010
:1044AC000000000000000000000000000000000000
:1044BC0000000000000000000000000000000000F0
:0400000508000C35AE
:00000001FF
